:060000000A128A11122809
:10000800FE00030EF6000408F7000A08F800831241
:1000180003137F08F9000A128A154F2C0A128A1551
:100028009C2A0A128A1512220A128A112A3083126D
:100038000313A9008530AA000A128A15F1220A12B0
:100048008A11262883120313061C2B282C285928CA
:1000580086182F2830285928061933283428592873
:1000680086193728382859280A128A15C1210A12F0
:100078008A11831203139501FF309B0006080F397C
:10008800AB002B08AC0014300A128A157B220A1226
:100098008A113B3083120313A9008530AA000A1283
:1000A8008A15F1220A128A112628061C5C285D2866
:1000B8008B28861C602861288B28061964286528E7
:1000C8008B288619682869288B280A128A15C12165
:1000D8000A128A11B430831203139500FF309B0073
:1000E80006080F39AB002B08AC0014300A128A1529
:1000F8007B220A128A11183083120313A900853053
:10010800AA000A128A15F1220A128A11262806184C
:100118008E288F28BD28861C92289328BD2806196A
:1001280096289728BD2886199A289B28BD280A1240
:100138008A15C1210A128A11C83083120313950047
:10014800FF309B0006080F39AB002B08AC001430B9
:100158000A128A157B220A128A11043083120313A9
:10016800A9008530AA000A128A15F1220A128A11FA
:100178002628061CC028C128EF28861CC428C528A4
:10018800EF28061DC828C928EF288619CC28CD28AD
:10019800EF280A128A15C1210A128A11C83083125F
:1001A80003139500FF309B0006080F39AB002B089E
:1001B800AC0014300A128A157B220A128A11043004
:1001C80083120313A9008530AA000A128A15F122A6
:1001D8000A128A1126280618F228F3282129861CD3
:1001E800F628F7282129061DFA28FB28212986192F
:1001F800FE28FF2821290A128A15C1210A128A110C
:10020800FF30831203139500FF309B0006080F3957
:10021800AB002B08AC0014300A128A157B220A1294
:100228008A11433083120313A9008530AA000A12E9
:100238008A15F1220A128A11262806182429252946
:1002480053298618282929295329061D2C292D299F
:10025800532986193029312953290A128A15C121AF
:100268000A128A11FF30831203139500C8309B00CD
:1002780006080F39AB002B08AC0014300A128A1597
:100288007B220A128A11F93083120313A9008430E1
:10029800AA000A128A15F1220A128A1126280618BB
:1002A800562957298529861C5A295B298529061D1F
:1002B8005E295F298529861D6229632985290A12F5
:1002C8008A15C1210A128A11FF308312031395007F
:1002D800C8309B0006080F39AB002B08AC0014305F
:1002E8000A128A157B220A128A11F9308312031323
:1002F800A9008430AA000A128A15F1220A128A116A
:100308002628061888298929B72986188C298D292D
:10031800B729061D90299129B729861D9429952961
:10032800B7290A128A15C1210A128A11FF308312CD
:1003380003139500B4309B0006080F39AB002B0857
:10034800AC0014300A128A157B220A128A110F3067
:1003580083120313A9008530AA000A128A15F12214
:100368000A128A1126280618BA29BB29E8298618EC
:10037800BE29BF29E8290619C229C329E829861DEB
:10038800C629C729E8290A128A15C1210A128A1121
:10039800FF308312031395009B0106080F39AB0049
:1003A8002B08AC0014300A128A157B220A128A1113
:1003B800333083120313A9008530AA000A128A1564
:1003C800F1220A128A1126280618EB29EC293B2A61
:1003D8008618EF29F0293B2A0619F329F4293B2A24
:1003E8008619F729F8293B2A0A128A15C1210A1207
:1003F8008A11831203132C08013A0319042A052AC7
:10040800182A2C08033A03190A2A0B2A182A2C0836
:10041800023A0319102A112A182A2C08073A031D30
:10042800162A172A1C2A182A9501FF309B0026280D
:100438002C08083A0319212A222A352A2C08043ABA
:100448000319272A282A352A2C080C3A03192D2A99
:100458002E2A352A2C080E3A031D332A342A262838
:10046800352AFF3095009B01262826282628061CB9
:100478003E2A3F2A2628861C422A432A2628061D69
:10048800462A472A2628861D4A2A4B2A26280A123F
:100498008A15C1210A128A112628262826282628E4
:1004A80026282628262826282628262826282628D4
:1004B80026280800831603138C128B130B138B1238
:1004C8000A128A15BA210A128A110A128A151222E8
:1004D8000A128A1100300A128A157B220A128A111E
:1004E800A33083120313A9008430AA000A128A15C4
:1004F800F1220A128A1114300A128A157B220A1272
:100508008A11C43083120313A9008430AA000A1286
:100518008A15F1220A128A11912A0A300A128A15BA
:1005280002220A128A110038031D9B2A9C2AA02A3B
:10053800831203130915A42A831203130911A42A89
:1005480018300A128A1502220A128A11831203131A
:10055800AB002B08AC0019300A128A1502220A12C5
:100568008A1183120313AB002B08AD0016300A1250
:100578008A1502220A128A1183120313AB002B0870
:10058800AE0017300A128A1502220A128A11831243
:100598000313AB002B08AF0004300A128A1502229D
:1005A8000A128A110038031DDA2ADB2AE72A0A12FE
:1005B8008A15C1210A128A11E630831203139500A5
:1005C800E6309B00912A06300A128A1502220A1286
:1005D8008A110038031DF12AF22AFE2A0A128A1506
:1005E800C8210A128A11E630831203139500E630F7
:1005F8009B00912A07300A128A1502220A128A11D0
:100608000038031D082B092B152B0A128A15D62131
:100618000A128A11E630831203139500E6309B0014
:10062800912A05300A128A1502220A128A11003804
:10063800031D1F2B202B2C2B0A128A15CF210A12DF
:100648008A11E630831203139500E6309B00912A45
:10065800831203132C08031D322B702B0A128A15E0
:10066800C1210A128A11831203132E08031D3D2B80
:10067800502B2C082E020318422B432B492B2E03F8
:10068800FF3A2C078C3E95004C2B8C3095004C2B58
:100698002C088C3E9B00912A2F08031D542B672B96
:1006A8002C082F020318592B5A2B602B2F03FF3AC3
:1006B8002C078C3E9B00632B8C309B00632B2C08F3
:1006C8008C3E9500912A2C088C3E95002C088C3E77
:1006D8009B00912A912A912A2D08031D742BB22B75
:1006E8000A128A15C8210A128A11831203132E08C6
:1006F800031D7F2B922B2D082E020318842B852B8C
:100708008B2B2E03FF3A2D078C3E9B008E2B8C30B3
:100718009B008E2B2D088C3E9500912A2F08031DD7
:10072800962BA92B2D082F0203189B2B9C2BA22B51
:100738002F03FF3A2D078C3E9500A52B8C30950092
:10074800A52B2D088C3E9B00912A2D088C3E9500E8
:100758002D088C3E9B00912A912A912A2E08031D70
:10076800B62BC42B0A128A15D6210A128A118312B3
:1007780003132E08783E95002E08783E9B00912A98
:100788002F08031DC82BD62B0A128A15CF210A124F
:100798008A11831203132F08783E95002F08783E9C
:1007A8009B00912A0A128A15BA210A128A11FF306F
:1007B800831203139500FF309B00912A912A912AF6
:1007C800912A912A912A912A912A912A912A0800FC
:1007D8007E088A007F0882000A128A11EC230A1216
:1007E8008A118000840A04087D0603190034FF0A70
:0607F8000319FE0AF02BBC
:10080000FF1B0A2C83137F1883170008840A03191F
:10081000FF0A08007F087F398A000408840A031948
:10082000FF0A820033342E3441346E3461346C3428
:100830006F3467342034533465346E3473346F341A
:100840007234003431342E344C3449344E3445340F
:10085000203446344F344C344C344F345734003405
:1008600032342E3455346C3474347234613473340D
:100870006F346E3469346334003434342E3453347A
:100880004B345834423445344534003435342E34F6
:1008900053344B3450345334003449344E3456348A
:1008A00041344C3449344434203443344F344D348F
:1008B0004D3441344E3444342034203400344234F6
:1008C000413443344B34573441345234443420346B
:1008D0002034203420342034203420342034003498
:1008E0005434553452344E3420344C344534463428
:1008F0005434203420342034203420342034203424
:1009000000345434553452344E3420345234493443
:1009100047344834543420342034203420342034B4
:1009200020340034203420345834423445344534A3
:10093000203443344F344E34543452344F344C34D6
:1009400020342034003443346F346E3474347234C1
:100950006F346C346C3469346E3467342034503402
:10096000523432343334003446344F3452345734F2
:100970004134523444342034203420342034203460
:1009800020342034203400342034203420345534B2
:10099000733469346E346734203453344B345034F8
:1009A000533400346E346F347434203463346F3411
:1009B0006E346E34653463347434653464340034B6
:1009C0004D34653461347334753472346534203495
:1009D0006D346F34643465340034533465346C34AE
:1009E00065346334743420346D346F346434653466
:1009F00000346D345F346C346534663474343134AF
:100A000020342034203400346D345F34723469343F
:100A100067346834743431342034203400346D3415
:100A20005F346C34653466347434323420340034CA
:100A30006D345F34723469346734683474343234FA
:100A40000034443469347334743461346E34633440
:100A50006534003450346F34733469347434693419
:100A60006F346E3400346C3465346634743420343E
:100A70002034203400347234693467346834743478
:100A80002034203400346D346934643464346C347C
:100A900065342034003443344F344D344D344134C4
:100AA0004E344434003455344134523454340034D8
:100AB0004134443443340034503457344D340034DA
:100AC000003083120313A3000130A2008630A1007E
:100AD000A030A0003108A7003008A6002F08A5000C
:100AE0002E08A4000A128A15DF230A128A11831223
:100AF00003132008B2003208B3000030A300013015
:100B0000A2008630A100A030A0003108A700300864
:100B1000A6002F08A5002E08A4000A128A1581231A
:100B20000A128A11831203132308B1002208B000AD
:100B30002108AF002008AE000030A3000030A20062
:100B40002730A1001030A0003108A7003008A6000F
:100B50002F08A5002E08A4000A128A15DF230A1206
:100B60008A11831203132008B2003208B400003047
:100B7000A3000030A2002730A1001030A0003108EF
:100B8000A7003008A6002F08A5002E08A4000A120E
:100B90008A1581230A128A11831203132308B100D4
:100BA0002208B0002108AF002008AE000030A300EA
:100BB0000030A2000330A100E830A0003108A700F7
:100BC0003008A6002F08A5002E08A4000A128A15D6
:100BD000DF230A128A11831203132008B20032089D
:100BE000B5000030A3000030A2000330A100E830BF
:100BF000A0003108A7003008A6002F08A5002E0885
:100C0000A4000A128A1581230A128A11831203137F
:100C10002308B1002208B0002108AF002008AE0070
:100C20000030A3000030A2000030A1006430A0001A
:100C30003108A7003008A6002F08A5002E08A40040
:100C40000A128A15DF230A128A118312031320085D
:100C5000B2003208B6000030A3000030A20000301D
:100C6000A1006430A0003108A7003008A6002F08BA
:100C7000A5002E08A4000A128A1581230A128A11DF
:100C8000831203132308B1002208B0002108AF002B
:100C90002008AE000030A3000030A2000030A10008
:100CA0000A30A0003108A7003008A6002F08A500D0
:100CB0002E08A4000A128A15DF230A128A11831251
:100CC00003132008B2003208B7000030A300003040
:100CD000A2000030A1000A30A0003108A7003008AF
:100CE000A6002F08A5002E08A4000A128A15812349
:100CF0000A128A11831203132308B1002208B000DC
:100D00002108AF002008AE003308303E0A128A15D1
:100D100041220A128A11831203133408303E0A1248
:100D20008A1541220A128A11831203133508303EB4
:100D30000A128A1541220A128A11831203133608F5
:100D4000303E0A128A1541220A128A1183120313B5
:100D50003708303E0A128A1541220A128A1183127C
:100D600003132E08303E0A128A1541220A128A11F4
:100D7000080083120313C3010314C30D0A128A155A
:100D800012220A128A11E03083120313A900843060
:100D9000AA000A128A15F1220A128A1114300A12C4
:100DA0008A157B220A128A11583083120313A90074
:100DB0008530AA000A128A15F1220A128A11E02E41
:100DC000831203130918E52EE62E2B2FE82EE82EAA
:100DD000091CEB2EEC2EE82EED2E0130C20042084D
:100DE000C30714300A128A157B220A128A11212F96
:100DF0005C3083120313A9008530AA000A128A15F9
:100E0000F1220A128A112B2F533083120313A900E7
:100E10008530AA000A128A15F1220A128A112B2F94
:100E2000583083120313A9008530AA000A128A15CC
:100E3000F1220A128A1183120313C3010314C30D92
:100E40002B2F831203134308023A0319F82E013A99
:100E50000319042F102F831203138918302F312FF9
:100E6000E02E332F332F891C362F372F332F3B2F74
:100E70003B2FE02EE02E0A128A1512220A128A1146
:100E8000213083120313A9008530AA000A128A15A3
:100E9000F1220A128A114C2F14300A128A157B2271
:100EA0000A128A118312031343080A128A15C124F5
:100EB0000A128A11831203133A08C501C5073908BB
:100EC000C401C4074408AE004508AF000030AF1BA2
:100ED000FF30B000B1000A128A1160250A128A118F
:100EE000831203134508803AFF0080307F02031D00
:100EF0007B2F29304402031C7E2F7F2F8C2F0A1258
:100F00008A15C1210A128A11FF308312031395003A
:100F1000FF309B0009114C2F831203134508803AC0
:100F2000FF0080307F02031D972F1F304402031CF7
:100F30009A2F9B2FA82F0A128A15C1210A128A11F3
:100F4000E630831203139500E6309B0009114C2F05
:100F5000831203134508803AFF0080307F02031D8F
:100F6000B32F15304402031CB62FB72FC02F0A121F
:100F70008A15BA210A128A118312031309114C2F00
:100F80000A128A15C8210A128A11E6308312031345
:100F90009500E6309B0009154C2F4C2F4C2F4C2F01
:100FA0004C2F080083120313A401A501D72F201C86
:100FB000DA2FDB2FE12F2208A4070318A50A230844
:100FC000A50701300310A20DA30DFF3E031DE22F64
:100FD00001300310A10CA00CFF3E031DE92F2108D6
:100FE0002004031DF42FF52FD72FF62F2508A1017C
:0C0FF000A1072408A001A007FD2F0800A5
:1013740083120313071687160714871508008312B0
:101384000313071087150712871608008312031327
:101394000714871107168712080083120313071214
:1013A4008716071487110800831203130716871280
:1013B40007108715080022348434303484341234FE
:1013C40084343D3484344634843483120313A000BB
:1013D400EB290C1EEE29EF29EB29F02920089900AE
:1013E4000800F429831203138C1EF929FA29F4291D
:1013F400FB291A08A0002008A1002108012A0800DE
:1014040083120313A20022080A128A15E7210A1282
:101414008A150A128A15F3210A128A15112A08005C
:1014240001300A128A1528220A128A150030831202
:101434000313A3000030A2000130A1005E30A0001D
:101444000A128A15BF220A128A150800831203138E
:10145400A8008613280888000030A3000030A200EA
:101464000130A1009030A0000A128A15BF220A128E
:101474008A150A128A155A220A128A15080083123A
:101484000313A8008617280888000030A300003042
:10149400A2000130A1009030A0000A128A15BF22D8
:1014A4000A128A150A128A155A220A128A15080083
:1014B4008312031306170030A3000030A20001308A
:1014C400A1002C30A0000A128A15BF220A128A1524
:1014D4008312031306130030A3000030A20001306E
:1014E400A1002C30A0000A128A15BF220A128A1504
:1014F400080083120313AA0010302A020318832A57
:10150400842A8C2A2A08803E0A128A1528220A1262
:101514008A159B2A831203132A08EC3EA900290882
:10152400AA002A08C03E0A128A1528220A128A151D
:101534009B2A0800F001F101F201F301F401C90151
:10154400CA01CB01CC01CD01CE01CF01D001D10123
:10155400D201D301D40183135F30FD000930FE00B2
:10156400DD30FF00553084000A128A11F0230A127C
:101574008A1583010A128A156B2E8312031323081A
:10158400220421042004031DC82AC92ACB2AF02AD4
:10159400F02A0130A4000030A5000030A60000307D
:1015A400A7002408A0022508031C250FDA2ADB2A39
:1015B400A1022608031C260FE02AE12AA20227081A
:1015C400031C270FE62AE72AA30223082204210486
:1015D4002004031DEE2AEF2ACB2AF02A08000B2B45
:1015E400831203132A08FF00290884000A128A11AF
:1015F40000240A128A150A128A1541220A128A152F
:10160400013083120313A9070318AA0A0030AA079A
:101614000B2B831203132A0829040319122B132BEF
:10162400232B2A08FF00290884000A128A110024A7
:101634000A128A150038031D202B212BF22A232B92
:10164400232B08008430831603139F008B15FF306F
:10165400920004308312031392000C3097000C3074
:101664009D0003308316031385001F3086008030ED
:1016740087008801033089008112811101158114CA
:1016840001148B1683120313810181308316031313
:10169400990018159816181383120313181698171F
:1016A4001813831603138C168B170B1701300A12A9
:1016B4008A1528220A128A1502300A128A1528224B
:1016C4000A128A1506300A128A1528220A128A1565
:1016D4000C300A128A1528220A128A1538300A1286
:1016E4008A1528220A128A158312031305158612F5
:1016F40009110A128A15BA210A128A1508008312DE
:101704000313230822042104200403198A2B8B2B9E
:10171400D52BA9010314A90D9D2B0130A80003109A
:10172400A00DA10DA20DA30DA80B912B0130A800B3
:101734002808A9079D2BA31FA02BA12B8F2BA32B1C
:10174400A32B23082702031DB12B22082602031D05
:10175400B12B21082502031DB12B20082402031CF0
:10176400B42BB52BC42B2008A4022108031C210F81
:10177400A5022208031C220FA6022308031C230F20
:10178400A702C42B01300310A30CA20CA10CA00CC3
:10179400FF3E031DC52B0130A902031DD22BD32B01
:1017A400A32BD52BD52B2708A3002608A200250898
:1017B400A1002408A000DE2B0800003083120313CC
:1017C400AC000030AB000030AA000030A9002308B0
:1017D4002204210420040319F02BF12B452CAD0124
:1017E4000314AD0D032C0130A8000310A00DA10DAE
:1017F400A20DA30DA80BF72B0130A8002808AD07F4
:10180400032CA31F062C072CF52B092C092C0130C3
:10181400A8000310A90DAA0DAB0DAC0DA80B0B2C41
:1018240023082702031D202C22082602031D202C36
:1018340021082502031D202C20082402031C232C2C
:10184400242C342C2008A4022108031C210FA502F7
:101854002208031C220FA6022308031C230FA7023D
:101864002914342C01300310A30CA20CA10CA00CDD
:10187400FF3E031D352C0130AD02031D422C432CC9
:10188400092C452C452C2C08A3002B08A2002A085F
:10189400A1002908A0004E2C08000B1D522C532C2B
:1018A4005B2C0B110030F0070318F10A0130F1072B
:1018B4005B2C0B1C5E2C5F2C712C0B10061E632CF6
:1018C400642C682C8101F001F101712C010870076E
:1018D400D10071080318710AD200712C712C8C1E6E
:1018E400742C752CB62C8C121A08523A031D7B2CBE
:1018F4007C2C862C1A08F5000030F300493E840045
:10190400750883138000972C1A08643A031D8B2CE6
:101914008C2C972C1A08F5000030F300493E840003
:10192400750883138000972C972C4908523A031D9D
:101934009C2C9D2CAA2C1A08F5007308493E84009F
:101944007508831380000130F5007508F307AA2C8D
:1019540005307302031CAF2CB02CB62C0430F500F8
:101964007508F300B62CB62C7908FF0078088A00B5
:1019740077088400760E8300FE0E7E0E0900831223
:101984000313BF00332D81300A128A154A250A1227
:101994008A15831203135408C101C1075308C001F7
:1019A400C007402D5208C101C1075108C001C0073A
:1019B400402D4908523A031DE02CE12C1D2D4A0804
:1019C400D03EA000FF3003180030A1006430A20014
:1019D4000030A3000A128A11D2270A128A15831230
:1019E40003134C082007BB0021080318210ABC007C
:1019F4004B08D03EA000FF3003180030A1000A308D
:101A0400A2000030A3000A128A11D2270A128A15F2
:101A14008312031320083B07BD0021080318210A81
:101A24003C07BE003D08D03EC0003E080318013EFE
:101A3400FF3EC100402D14300A128A157B220A127F
:101A44008A15D23083120313A9008430AA000A1223
:101A54008A15F1220A128A152F2D2F2D402D402D83
:101A6400402D831203133F08013A0319C52C033A8E
:101A74000319D42C013A0319DB2C402D83120313D0
:101A84004108BA01BA074008B901B907492D08004D
:101A940083120313B2000030B6000030B5000030EA
:101AA400B4000030B30032089F000030A3000030BF
:101AB400A2002730A1001030A0000A128A15BF220C
:101AC4000A128A15C83083120313B7000030B80015
:101AD40038083704031D6F2D702D722DBA2DBA2DC1
:101AE4001F15742D1F19772D782D742D792D1E082F
:101AF400AE00AF012E08D3002F08D4005308AF0066
:101B0400AE012E08D3002F08D40053088316031304
:101B14001E0483120313D3005408D4005308AE00E8
:101B24005408AF00B001B1012E08B3072F08031108
:101B34000318013E03199F2DB4073008031103183D
:101B4400013E0319A62DB507310803110318013E00
:101B54000319AD2DB6070130B7020030031CB803DA
:101B6400B80238083704031DB82DB92D722DBA2DCB
:101B74000030A3000030A2000030A100C830A00053
:101B84003608A7003508A6003408A5003308A400C9
:101B94000A128A15DF230A128A15831203132108F5
:101BA400D401D4072008D301D3071F1008000A1258
:101BB4008A1512220A128A15213083120313A900EE
:101BC4008530AA000A128A15F1220A128A15EA2D12
:101BD40014300A128A157B220A128A1589300A12D5
:101BE4008A154A250A128A15831203135408BA0166
:101BF400BA075308B901B9075308AE005408AF0037
:101C0400B001B1010A128A1160250A128A158312E1
:101C140003133A08803AFF0080307F02031D142E1C
:101C2400C83039020318172E182E252E0A128A15C9
:101C3400C8210A128A15FF30831203139500FF305E
:101C44009B000911EA2D831203133A08803AFF001E
:101C540080307F02031D302EFA3039020318332EF0
:101C6400342E412E0A128A15C8210A128A15E6302A
:101C7400831203139500E6309B000911EA2D8312A9
:101C840003133A08803AFF0081307F02031D4C2E73
:101C94002C30390203184F2E502E592E0A128A1551
:101CA400BA210A128A15831203130911EA2D0A12A2
:101CB4008A15C1210A128A15E6308312031395008E
:101CC400E6309B000915EA2DEA2DEA2DEA2DEA2DCE
:101CD400080083120313C801C7010030A3000030B9
:101CE400A2004E30A1002030A0000A128A15BF22A3
:101CF4000A128A150A128A1524230A128A158312D3
:101D0400031309150A128A1512220A128A15ED30D4
:101D140083120313A9008430AA000A128A15F1223F
:101D24000A128A1514300A128A157B220A128A159D
:101D3400831203134808C6004607553E84008313E4
:101D44000008A900840A0008AA000A128A15F122D0
:101D54000A128A15831203130911B02E8312031376
:101D64000918B52EB62EED2EB82EB82E091CBB2E92
:101D7400BC2EB82EBD2E0130C6004608C80705305B
:101D84004802031CC62EC72EC92EC801C92E143002
:101D94000A128A157B220A128A1583120313480831
:101DA400C6004607553E840083130008A900840A30
:101DB4000008AA000A128A15F1220A128A1568304C
:101DC40083120313A9008430AA000A128A15F1228F
:101DD4000A128A15ED2E831203138918F22EF32E9C
:101DE400B02EF52EF52E891CF82EF92EF52E1A2F6D
:101DF4001A2F0A128A1115200A128A15B02E0A12F5
:101E04008A11B9260A128A15B02E0A128A15D92502
:101E14000A128A15B02E0A128A1533270A128A1555
:101E2400B02E0A128A115E220A128A15B02EB02E22
:101E3400831203134808003A0319FB2E013A0319CD
:101E4400012F033A0319072F013A03190D2F073AFB
:101E54000319132FB02EB02EB02EB02E0A128A11F1
:101E640012280A128A1512220A128A1500300A123E
:101E74008A157B220A128A15831203134908643ACD
:101E8400031D452F462FF12F9230A9008430AA005C
:101E94000A128A15F1220A128A15C8308312031312
:101EA4009500C8309B00562F14300A128A157B22E5
:101EB4000A128A15831203131A08383A031D632F72
:101EC400642F752F0A128A15C1210A128A15B4309B
:101ED40083120313A9008430AA000A128A15F1227E
:101EE4000A128A15562F831203131A08323A031D55
:101EF4007C2F7D2F8E2F0A128A15C8210A128A156B
:101F04005F3083120313A9008430AA000A128A15D1
:101F1400F1220A128A15562F831203131A08363A2D
:101F2400031D952F962FA72F0A128A15CF210A1267
:101F34008A15813083120313A9008430AA000A127F
:101F44008A15F1220A128A15562F831203131A08CE
:101F5400343A031DAE2FAF2FC02F0A128A15D62193
:101F64000A128A15703083120313A9008430AA0060
:101F74000A128A15F1220A128A15562F83120313A4
:101F84001A08353A031DC72FC82FD92F0A128A15EC
:101F9400BA210A128A154D3083120313A900843022
:101FA400AA000A128A15F1220A128A15562F0A1259
:101FB4008A15BA210A128A154D3083120313A90017
:101FC4008430AA000A128A15F1220A128A15562FA1
:101FD400562F562F562F562F562F562F382F4B30FD
:101FE40083120313A9008530AA000A128A15F1226C
:0C1FF4000A128A15382F382F382F0800E9
:02400E00323F3F
:00000001FF
