:060000000A128A11122809
:10000800FE00030EF2000408F3000A08F40083124D
:1000180003137F08F5000A168A119B2F0A168A1106
:10002800282D83120313D300CF2800300A128A1513
:100038005A200A128A11831203133B08D4003C0881
:10004800D500D601D7015408CF005508D00056086E
:10005800D1005708D20001300310D20CD10CD00CBB
:10006800CF0CFF3E031D30285208D7005108D60098
:100078005008D5004F08D400DA287708D40078084B
:10008800D500D601D7010030B0000F30AF004230A4
:10009800AE004030AD005708A3005608A20055082E
:1000A800A1005408A0000030A7000030A6001530B9
:1000B800A5004230A4000A168A114F270A128A1195
:1000C800831203132308B4002208B3002108B200E6
:1000D8002008B1000A128A118A270A128A1183128B
:1000E80003133008D7002F08D6002E08D5002D0896
:1000F800D400DA285F08523A031D83288428C528CB
:100108006008D03EA000FF3003180030A100643022
:10011800A2000030A3000A168A1193250A128A1138
:100128008312031362082007CF0021080318210A4D
:10013800D0006108D03EA000FF3003180030A100B5
:100148000A30A2000030A3000A168A1193250A1269
:100158008A118312031320084F07D10021080318BE
:10016800210A5007D2005108D03ED4005208031883
:10017800013EFF3ED500D601D51BD6035608D70051
:10018800DA280030D7000030D6000030D500003023
:10019800D400DA28DA285308013A03191928033A4F
:1001A80003194128013A03197E28DA285508CE0197
:1001B800CE075408CD01CD07E12808008130831609
:1001C8000313990018159816181383120313181699
:1001D80098171813981CF128F228F52818121816E1
:1001E800F5281A08F7281A08831603138C12080032
:0601F8008B170B17080035
:10020000FF1B0A2983137F1883170008840A031928
:10021000FF0A08007F087F398A000408840A03194E
:10022000FF0A820032342E3455346C347434723404
:10023000613473346F346E3469346334203445343C
:100240005A3431340034533461346D3470346C3486
:100250006534203443346F34643465342034763468
:1002600032342E343234003431342E344C34693448
:100270006E346534203446346F346C346C346F34EF
:10028000773469346E34673400344D3475346C34EB
:1002900074346934663475346E3463347434693458
:1002A0006F346E3420344D345234003433342E34B1
:1002B00041346E3461346C346F34673420345334D9
:1002C00065346E3473346F34723400342034443403
:1002D0006F34203449347434203459346F347534D5
:1002E0007234733465346C346634003420346334CF
:1002F0007934743472346F346E342E3463346F3422
:100300006D342E346D347934003420342034433449
:100310007934743472346F346E3420345434653428
:10032000633468340034203420345034523432344E
:100330003334203452346534763432342E3430340D
:10034000003434342E3453344B345834423445342E
:100350004534003435342E3453344B345034533414
:1003600000344F34743468346534723420343D348E
:100370002034733474346F347034203461346E3408
:100380006434203469346E34763461346C346934C6
:100390006434203463346F346D346D3461346E34BE
:1003A0006434003443346F346E346E3465346334F3
:1003B0007434653464342034773469347434683484
:1003C0002034583442346534653420347734693409
:1003D000723465346C3465347334733400346E3481
:1003E00075346D34623465347234203436342034DC
:1003F0003D3420347434753472346E3420347234A5
:10040000693467346834743400346E3475346D3450
:100410006234653472342034343420343D34203432
:100420007434753472346E3420346C34653466340C
:10043000743400346E3475346D346234653472341F
:100440002034323420343D34203462346134633417
:100450006B34773461347234643400346E34753400
:100460006D346234653472342034383420343D3491
:10047000203466346F3472347734613472346434C7
:100480000034523465346134643479342034743443
:100490006F34203463346F346E34743472346F3498
:1004A0006C342134003449346E34763461346C3425
:1004B00069346434203443346F346D346D346134C2
:1004C0006E3464342134003449344E34563441346B
:1004D0004C3449344434203443344F344D344D3457
:1004E00041344E3444340034203453344B34583483
:1004F000423465346534203443346F346E3474349C
:1005000072346F346C3400345334573431342B34F8
:100510002B34203420345334573432342D343E3489
:10052000523475346E340034533468346134723468
:1005300070342034473450343234593430344134F8
:100540003234313400342034203443346F346E3448
:10055000743472346F346C34203450345234323446
:100560003334003420344C3469346E3465342034F0
:1005700050346F3473346934743469346F346E3486
:1005800000342034643420346F346E3420346334C7
:100590006F346D34703475347434653472340034AF
:1005A000203420342034773469347434683420346F
:1005B00053344B345034533400345434753472341F
:1005C0006E342034523469346734683474342134DE
:1005D00000346D345F346C346534663474343134D3
:1005E00020342034203400346D345F347234693464
:1005F00067346834743431342034203400344D345A
:1006000065346134733475347234653420343A346B
:10061000203400345434753472346E3420344C3405
:1006200065346634743421340034543455345234CF
:100630004E3420345234493447344834543400342E
:100640004234613463346B347734613472346434EB
:100650002134003443346F346E346734723461347F
:1006600074347334213400344A34503437342034F1
:1006700074346F3420345534433400345434553496
:1006800052344E3420344C344534463454340034DF
:100690006D345F346C3465346634743432342034F1
:1006A000003446346F3472347734613472346434D5
:1006B000213400346D345F34723469346734683403
:1006C0007434323400344234413443344B3457347C
:1006D00041345234443400346C34653466347434F8
:1006E0002034203420340034723469346734683460
:1006F00074342034203400346D3469346434643408
:100700006C3465342034003446346F3472347734BA
:100710006134723464340034523465346134643486
:10072000793421340034523461346E3467346534A2
:100730003A340034413444344334203400345034A7
:1007400057344D3420340034553441345234543409
:10075000003469346E3463346834003441344434D2
:100760004334003458345834583400344F347534DA
:100770007434003463346D3400340A168A1134241E
:100780000A128A110A168A1159240A128A110A16A3
:100790008A11C6240A128A11A33083120313A900F6
:1007A0008230AA000A168A11EE250A128A110A124C
:1007B0008A11F9270A128A11D03083120313A90073
:1007C0008230AA000A168A11EE250A128A11003018
:1007D00083120313A3000030A2000130A100F43003
:1007E000A0000A168A11CD260A128A1101300A16B3
:1007F0008A1191260A128A1143300A128A150020A2
:100800000A128A11343083120313A9008330AA001C
:100810000A168A11EE250A128A1100308312031378
:10082000A3000030A2000330A100E830A0000A16A7
:100830008A11CD260A128A110A128A11E2200A129E
:100840008A1102300A168A11BF250A128A11013054
:100850000A168A1191260A128A1145300A128A153F
:1008600000200A128A118C3083120313A9008330EE
:10087000AA000A168A11EE250A128A113F2C0A30A4
:100880000A168A118D240A128A11003A0319492C7A
:100890004A2C6B2C08300A168A118D240A128A11F0
:1008A000003A0319542C552C6B2C0B300A168A1164
:1008B0008D240A128A11003A03195F2C602C6B2CCC
:1008C00009300A168A118D240A128A110038031D74
:1008D0006A2C6B2C6F2C831203130915732C831253
:1008E00003130911732C18300A168A118D240A1269
:1008F0008A1183120313AC002C08AD0019300A16BC
:100900008A118D240A128A1183120313AC002C0859
:10091000AE0016300A168A118D240A128A1183122B
:100920000313AC002C08AF0017300A168A118D246F
:100930000A128A1183120313AC002C08B000043091
:100940000A168A118D240A128A110038031DA92C57
:10095000AA2CB62C0A168A1152240A128A11E630E1
:10096000831203139500E6309B003F2C06300A16D5
:100970008A118D240A128A110038031DC02CC12C43
:10098000CD2C0A168A114B240A128A11E6308312E2
:1009900003139500E6309B003F2C07300A168A119E
:1009A0008D240A128A110038031DD72CD82CE42C70
:1009B0000A168A113D240A128A11E63083120313A3
:1009C0009500E6309B003F2C05300A168A118D24D5
:1009D0000A128A110038031DEE2CEF2CFB2C0A168C
:1009E0008A1144240A128A11E630831203139500F7
:1009F000E6309B003F2C831203132D08031D012DAD
:100A00003F2D0A168A1152240A128A1183120313E7
:100A10002F08031D0C2D1F2D2D082F020318112D3B
:100A2000122D182D2F03FF3A2D078C3E95001B2DFC
:100A30008C3095001B2D2D088C3E9B003F2C3008E0
:100A4000031D232D362D2D0830020318282D292DA6
:100A50002F2D3003FF3A2D078C3E9B00322D8C301A
:100A60009B00322D2D088C3E95003F2C2D088C3E8E
:100A700095002D088C3E9B003F2C3F2C3F2C2E08D0
:100A8000031D432D812D0A168A114B240A128A1147
:100A9000831203132F08031D4E2D612D2E082F02E4
:100AA0000318532D542D5A2D2F03FF3A2E078C3E39
:100AB0009B005D2D8C309B005D2D2E088C3E95009B
:100AC0003F2C3008031D652D782D2E0830020318A9
:100AD0006A2D6B2D712D3003FF3A2E078C3E950049
:100AE000742D8C309500742D2E088C3E9B003F2C6D
:100AF0002E088C3E95002E088C3E9B003F2C3F2CF0
:100B00003F2C2F08031D852D932D0A168A113D2495
:100B10000A128A11831203132F08783E95002F08BA
:100B2000783E9B003F2C3008031D972DA52D0A16FB
:100B30008A1144240A128A11831203133008783E62
:100B400095003008783E9B003F2C0A168A115924E4
:100B50000A128A118312031395019B013F2C3F2C2B
:100B60003F2C3F2C3F2C3F2C3F2C3F2C3F2C3F2C2D
:100B7000080083120313AD010A168A1134240A12E5
:100B80008A110A128A11E2200A128A110A168A119F
:100B9000C6240A128A11743083120313A90082300A
:100BA000AA000A168A11EE250A128A110A128A115F
:100BB000F9270A128A11343083120313A9008330F3
:100BC000AA000A168A11EE250A128A110030831231
:100BD0000313A3000030A2000330A100E830A000FE
:100BE0000A168A11CD260A128A1101300A168A11B4
:100BF00091260A128A110A128A11F9270A128A11F9
:100C0000C13083120313A9008230AA000A168A1188
:100C1000EE250A128A110D2E0D2E0A168A11B02405
:100C20000A128A11643A031D162E172E0D2E182E45
:100C300001300A168A1191260A128A110A128A11A3
:100C4000F9270A128A11413083120313A900823056
:100C5000AA000A168A11EE250A128A1102300A1613
:100C60008A11BF250A128A112A3083120313A300A6
:100C70008330A4000A168A110E250A128A11D23076
:100C800083120313A3008130A4000A168A110E25D3
:100C90000A128A112E3083120313A3008230A4009B
:100CA0000A168A110E250A128A111A3083120313AA
:100CB000A3008230A4000A168A110E250A128A1196
:100CC000EF3083120313A3008130A4000A168A11A7
:100CD0000E250A128A11053083120313A3008230F5
:100CE000A4000A168A110E250A128A11B130831245
:100CF0000313A3008130A4000A168A110E250A12DC
:100D00008A11C830831203139500C8309B000A165D
:100D10008A1159240A128A118D2E0A168A11B024BA
:100D20000A128A1183120313AC002C08AD000A12B8
:100D30008A11F9270A128A11831203132D08383AEF
:100D4000031DA32EA42ECC2E0A168A1152240A1299
:100D50008A1101300A168A1191260A128A1144302A
:100D60000A128A1500200A128A1184308312031392
:100D7000A9008330AA000A168A11EE250A128A11E8
:100D8000513083120313A3008330A4000A168A1182
:100D90000E250A128A118D2E831203132D08323A62
:100DA000031DD32ED42EFC2E0A168A114B240A12B0
:100DB0008A1101300A168A1191260A128A114430CA
:100DC0000A128A1500200A128A1163308312031353
:100DD000A9008330AA000A168A11EE250A128A1188
:100DE000203083120313A3008330A4000A168A1153
:100DF0000E250A128A118D2E831203132D08363AFE
:100E0000031D032F042F2C2F0A168A1144240A12C3
:100E10008A1101300A168A1191260A128A1143306A
:100E20000A128A1500200A128A1115308312031340
:100E3000A9008330AA000A168A11EE250A128A1127
:100E4000DD3083120313A3008230A4000A168A1136
:100E50000E250A128A118D2E831203132D08343A9F
:100E6000031D332F342F5C2F0A168A113D240A12DA
:100E70008A1101300A168A1191260A128A1143300A
:100E80000A128A1500200A128A113E3083120313B7
:100E9000A9008330AA000A168A11EE250A128A11C7
:100EA0000A3083120313A3008330A4000A168A11A8
:100EB0000E250A128A118D2E0A168A1159240A1239
:100EC0008A1101300A168A1191260A128A114030BD
:100ED0000A128A1500200A128A1164308312031341
:100EE000A9008230AA000A168A11EE250A128A1178
:100EF000533083120313A3008230A4000A168A1110
:100F00000E250A128A118D2E8D2E8D2E8D2E8D2E50
:100F10008D2E0800003083120313B9000030B80092
:100F20000030B7000030B60030082F042E042D0426
:100F300003199B2F9C2FEF2FBA01BA0AAD2F013056
:100F4000B5000310AD0DAE0DAF0DB00DB50BA12F5B
:100F50000130B5003508BA07AD2FB01FB02FB12F43
:100F60009F2FB32FB32F0130B5000310B60DB70D6F
:100F7000B80DB90DB50BB52F30083402031DCA2FBB
:100F80002F083302031DCA2F2E083202031DCA2F59
:100F90002D083102031CCD2FCE2FDE2F2D08B102DC
:100FA0002E08031C2E0FB2022F08031C2F0FB302B2
:100FB0003008031C300FB4023614DE2F013003104A
:100FC000B00CAF0CAE0CAD0CFF3E031DDF2F01309B
:100FD000BA02031DEC2FED2FB32FEF2FEF2F39089F
:100FE000B0003808AF003708AE003608AD00F82F63
:100FF0000800C0300A168A11F5240A128A11080066
:1010000083120313A9002908803E0A168A11F524C9
:101010000A128A15080083120313A501A6012108EC
:1010200020040319142815285228A701A70A2428E8
:1010300001300310A00DA10DFF3E031D1928013042
:10104000A4002408A7072428A11F27282828182837
:101050002A282A2801300310A50DA60DFF3E031DE6
:101060002B2821082302031D372820082202031CF5
:101070003A283B2843282008A2022108031CA30386
:10108000A3022514432801300310A10CA00CFF3E3D
:10109000031D44280130A702031D4F2850282A2889
:1010A000522852282608A101A1072508A001A0075F
:1010B0005928080083120313C500CB01CC0100306E
:1010C000CA000030C9000030C8000030C700C508A1
:1010D000031D6B286C286F2881309F0079284508F4
:1010E000013A031D74287528792889309F007928D2
:1010F00079280030A3000030A2000030A1000130A8
:10110000A0000A168A11CD260A128A15C830831249
:101110000313BD003D08C600C608031D9028912892
:101120009328E128E1281F1595281F199828992848
:1011300095289A281E08BD00BE013D08CB003E0838
:10114000CC004B08BE00BD013D08CB003E08CC00E2
:101150004B08831603131E0483120313CB004C08A1
:10116000CC004708BD004808BE004908BF004A0837
:10117000C0004B08C1004C08C200C301C4014108B3
:10118000BD0742080318420FC628C728BE074308F8
:101190000318430FCC28CD28BF0744080318440A7E
:1011A000C0074008CA003F08C9003E08C8003D0803
:1011B000C7000130C602C608031DDF28E0289328B7
:1011C000E1280030B0000030AF000030AE00C83081
:1011D000AD004A08B4004908B3004808B200470807
:1011E000B1000A128A118A270A128A158312031380
:1011F0003008CA002F08C9002E08C8002D08C700F3
:101200001F104808BC01BC074708BB01BB070829E1
:10121000080083120313B2002C3084006508831386
:101220008000840A66088000840A67088000840AB7
:1012300068088000840A69088000B601B501B10120
:101240001030B3002730B4000430AB002B08B500D9
:10125000B508031D2C292D292F299F299F293408E2
:10126000A101A1073308A001A0072A08A301A30731
:101270002908A201A2070A128A150B200A128A1550
:10128000831203132008AB0035082C3E84002B0882
:10129000831380003508013A031D4F295029662920
:1012A0000A30A0000030A1002A08A301A3072908E2
:1012B000A201A2070A168A110A270A128A158312A6
:1012C00003132008AB002B08AC0097293408A101B8
:1012D000A1073308A001A0072A08A301A307290832
:1012E000A201A2070A168A110A270A128A15831276
:1012F00003132108AA01AA072008A901A9070A3097
:10130000A0000030A1003408A301A3073308A20104
:10131000A2070A128A150B200A128A1583120313D8
:101320002108B401B4072008B301B307972901309D
:10133000B502B508031D9D299E292F299F29063036
:101340003202031CA429A529A9290530AB002B08CA
:10135000B2003208AB002B08B600B608031DB12955
:10136000B229B429FF29FF293608013A031DB929FA
:10137000BA29C7293608FF3E2C3E84008313000893
:10138000303E0A168A11DC240A128A15F5298312C6
:1013900003133608FF3E2C3E840083138008031D90
:1013A000D229D329DF29B108031DD729D829DF295C
:1013B00020300A168A11DC240A128A15F5298312B4
:1013C00003133608FF3E2C3E840083130008303E92
:1013D0000A168A11DC240A128A15013083120313BB
:1013E000AB002B08B107F529F5290130831203134F
:1013F000B602B608031DFD29FE29B429FF290800FD
:10140000003083120313D5000030D4000030D30025
:101410000030D200D1010A168A11C6240A128A1598
:10142000943083120313A9008230AA000A168A118D
:10143000EE250A128A150A128A11F9270A128A154C
:10144000933083120313A9008330AA000A168A116D
:10145000EE250A128A154A300A128A1500200A124D
:101460008A15BA3083120313A9008330AA000A1622
:101470008A11EE250A128A153D2A47300A128A156A
:1014800000200A128A1501300A128A155A200A12FF
:101490008A15831203133B08D2003C08D300D40101
:1014A000D5010030B0000030AF002730AE00103062
:1014B000AD005508A3005408A2005308A10052082B
:1014C000A0000030A7000030A600BE30A500BC3050
:1014D000A4000A168A114F270A128A1583120313D1
:1014E0002308B4002208B3002108B2002008B1008C
:1014F0000A128A118A270A128A15831203133008E6
:10150000D5002F08D4002E08D3002D08D2000030BB
:101510005502031D952A00305402031D952A0130FF
:101520005302031D952A91305202031C982A992ACE
:10153000422B00305502031DA72A00305402031D20
:10154000A72A0A305302031DA72AF03052020318BB
:10155000AA2AAB2A422B4230CD00FF30CE00FF300A
:10156000CF00FF30D0005208CD0753080318530FA7
:10157000BA2ABB2ACE0754080318540FC02AC12A1E
:10158000CF0755080318550AD0075008D5004F0853
:10159000D4004E08D3004D08D2005508B0005408BE
:1015A000AF005308AE005208AD000030B400003068
:1015B000B3005130B200FE30B1000A128A118A27FE
:1015C0000A128A15831203132D08CD004D08D1008D
:1015D0005108CD00CE014D08A9004E08AA000230E6
:1015E0000A128A1509210A128A1520300A168A1150
:1015F000DC240A128A151F30831203135102031CC4
:10160000022B032B102B0A168A114B240A128A155F
:10161000FF30831203139500FF309B0009113D2A10
:1016200015305102031C152B162B232B0A168A1179
:101630004B240A128A15C830831203139500C83050
:101640009B0009113D2A10305102031C282B292B25
:10165000322B0A168A1159240A128A15831203138F
:1016600009113D2A0A168A1152240A128A15C83015
:10167000831203139500C8309B0009153D2A3D2AAB
:101680003D2A3D2AB630A9008330AA000A168A11E5
:10169000EE250A128A150A168A1159240A128A1589
:1016A0003D2A3D2A3D2A080083120313DE01DD0195
:1016B0000A168A1157260A128A150A168A111F2637
:1016C0000A128A1502300A168A11BF250A128A15D3
:1016D0008312031386160A168A11C6240A128A1563
:1016E000853083120313A9008130AA000A168A11DB
:1016F000EE250A128A150A128A11F9270A128A158A
:10170000763083120313A9008130AA000A168A11C9
:10171000EE250A128A15003083120313A30000304D
:10172000A2000330A1002030A0000A168A11CD26A5
:101730000A128A150A168A11C6240A128A156630F8
:1017400083120313A9008130AA000A168A11EE251C
:101750000A128A150A128A11F9270A128A154530C7
:1017600083120313A9008130AA000A168A11EE25FC
:101770000A128A15003083120313A3000030A2005E
:101780000330A1002030A0000A168A11CD260A12CB
:101790008A150A168A11C6240A128A1593308312F2
:1017A0000313A9008130AA000A168A11EE250A1235
:1017B0008A150A128A11F9270A128A152330831210
:1017C0000313A9008130AA000A168A11EE250A1215
:1017D0008A15003083120313A3000030A2000330E7
:1017E000A1002030A0000A168A11CD260A128A15FF
:1017F0000A168A11C6240A128A15831203135E0878
:10180000DC005C07A03E840083130008A900840A62
:101810000008AA000A168A11EE250A128A150A1271
:101820008A11F9270A128A15843083120313A9003A
:101830008230AA000A168A11EE250A128A15013092
:101840000A168A11BF250A128A15262C8312031341
:1018500009182B2C2C2C652C2E2C2E2C091C312CF1
:10186000322C2E2C332C01300A168A11BF250A1275
:101870008A15013083120313DC005C08DE07053093
:101880005E02031C442C452C472CDE01472C003003
:101890000A168A1191260A128A150A168A116724D5
:1018A0000A128A15831203135E08DC005C07A03E4F
:1018B000840083130008A900840A0008AA000A16FD
:1018C0008A11EE250A128A15652C831203138918D2
:1018D0006A2C6B2C262C6D2C6D2C891C702C712C79
:1018E0006D2C722C01300A168A11BF250A128A1536
:1018F000972C0A128A154C260A128A15262C0A12CF
:101900008A15B0240A128A15262C0A128A1500227A
:101910000A128A15262C0A128A11B9250A128A156A
:10192000262C0A128A11BD230A128A15262C83122C
:1019300003135E08003A0319792C013A03197F2C2E
:10194000033A0319852C013A03198B2C073A031922
:10195000912C262C262C262C262C0A128A11122891
:1019600083120313DA01DB01D901D90A0A168A119D
:10197000C6240A128A15FF3083120313A90082308D
:10198000AA000A168A11EE250A128A1509300A12CF
:101990008A1500200A128A15AE3083120313A9009B
:1019A0008330AA000A168A11EE250A128A150A1235
:1019B0008A11F9270A128A15843083120313A900A9
:1019C0008230AA000A168A11EE250A128A15392DCC
:1019D0000918EB2CEC2C392DEE2CEE2C091CF12CDB
:1019E000F22CEE2CF32C01300A168A11BF250A12B4
:1019F0008A15013083120313D8005808D90709301B
:101A00000A128A1500200A128A152E2D9F30831281
:101A10000313A9008330AA000A168A11EE250A12C0
:101A20008A15392DA43083120313A9008330AA002C
:101A30000A168A11EE250A128A15392D9A30831258
:101A40000313A9008330AA000A168A11EE250A1290
:101A50008A1583120313D901D90A392D831203136E
:101A60005908023A0319062D013A0319122D1E2DA9
:101A7000392D8312031389183E2D3F2DE82C412D5B
:101A8000412D891C442D452D412D462D01300A162E
:101A90008A1191260A128A150A128A11F9270A1246
:101AA0008A15933083120313A9008330AA000A1603
:101AB0008A11EE250A128A154B300A128A15002067
:101AC0000A128A15A93083120313A9008330AA00D1
:101AD0000A168A11EE250A128A1583120313590871
:101AE000023A031D742D752D852D0A168A11602466
:101AF0000A128A158312031310140B108B150A1285
:101B00008A11FC200A128A15B62D83120313590874
:101B1000033A031D8C2D8D2DAA2D0A128A11E22065
:101B20000A128A15831603138C160A128A11FC20D6
:101B30000A128A15003083120313A3000030A2009A
:101B40000030A1003C30A0000A168A11CD260A12EE
:101B50008A15B62D8B11831603138C120A168A115F
:101B600034240A128A15B62DB62DB62D831203130E
:101B700059080A128A1115200A128A1583120313B2
:101B80004E08DB01DB074D08DA01DA0747300A129D
:101B90008A1500200A128A150030831203135B0293
:101BA000053003195A020318D62DD72DEB2DB2306C
:101BB000A9008330AA000A168A11EE250A128A1596
:101BC0000A168A1159240A128A15831203139501E1
:101BD0009B01B62DF82D5B08AA01AA075A08A90196
:101BE000A90703300A128A1509210A128A15F82D4D
:101BF0000030831203135B02153003195A02031CD1
:101C0000022E032E102E0A168A1152240A128A1549
:101C1000FF30831203139500FF309B000911B62D8E
:101C200000305B020D3003195A02031C182E192EC6
:101C3000262E0A168A1152240A128A15B4308312EB
:101C400003139500B4309B000911B62D00305B02E0
:101C5000093003195A02031C2E2E2F2E3A2E0A1673
:101C60008A1159240A128A158312031395019B01C4
:101C70000911B62D0A168A114B240A128A15C8308A
:101C8000831203139500C8309B000915B62DB62D9D
:101C9000B62DB62DB62D080083120313AC010A161B
:101CA0008A11C6240A128A15B23083120313A900BE
:101CB0008230AA000A168A11EE250A128A15602EB1
:101CC0000A168A1152240A128A1583120313061C5B
:101CD0006A2E6B2E8D2E86186E2E6F2E8D2E061967
:101CE000722E732E8D2E8619762E772E8D2E9501BF
:101CF000FF309B00AC01AC0A0A128A11F9270A12C4
:101D00008A15743083120313A9008330AA000A16BF
:101D10008A11EE250A128A15602E061C902E912E2D
:101D2000B42E861C942E952EB42E0619982E992E1C
:101D3000B42E86199C2E9D2EB42EB4309500FF3003
:101D40009B00AC01AC0A0A128A11F9270A128A1503
:101D50005A3083120313A9008330AA000A168A118D
:101D6000EE250A128A15602E0618B72EB82EDB2E25
:101D7000861CBB2EBC2EDB2E0619BF2EC02EDB2EE2
:101D80008619C32EC42EDB2EC8309500FF309B0071
:101D9000AC01AC0A0A128A11F9270A128A15F4302A
:101DA00083120313A9008230AA000A168A11EE25B5
:101DB0000A128A15602E061CDE2EDF2E022F861CCC
:101DC000E22EE32E022F061DE62EE72E022F8619A5
:101DD000EA2EEB2E022FC8309500FF309B00AC019D
:101DE000AC0A0A128A11F9270A128A15F4308312F2
:101DF0000313A9008230AA000A168A11EE250A12DE
:101E00008A15602E0618052F062F2B2F861C092FEA
:101E10000A2F2B2F061D0D2F0E2F2B2F8619112F5A
:101E2000122F2B2FFF309500FF309B000230AB00AC
:101E30002B08AC000A128A11F9270A128A157C3085
:101E400083120313A9008330AA000A168A11EE2513
:101E50000A128A15602E06182E2F2F2F542F86183F
:101E6000322F332F542F061D362F372F542F86191C
:101E70003A2F3B2F542FFF309500C8309B00033082
:101E8000AB002B08AC000A128A11F9270A128A1536
:101E9000E93083120313A9008230AA000A168A11BE
:101EA000EE250A128A15602E0618572F582F7D2FFF
:101EB000861C5B2F5C2F7D2F061D5F2F602F7D2FD3
:101EC000861D632F642F7D2FFF309500C8309B0047
:101ED0000330AB002B08AC000A128A11F9270A1252
:101EE0008A15E93083120313A9008230AA000A166A
:101EF0008A11EE250A128A15602E0618802F812F6E
:101F0000A62F8618842F852FA62F061D882F892F90
:101F1000A62F861D8C2F8D2FA62FFF309500B43055
:101F20009B000330AB002B08AC000A128A11F92782
:101F30000A128A15483083120313A9008330AA00BD
:101F40000A168A11EE250A128A15602E0618A92F84
:101F5000AA2FCE2F8618AD2FAE2FCE2F0619B12F58
:101F6000B22FCE2F861DB52FB62FCE2FFF30950066
:101F70009B010330AB002B08AC000A128A11F92731
:101F80000A128A156C3083120313A9008330AA0049
:101F90000A168A11EE250A128A15602E0618D12F0C
:101FA000D22F602E8618D52FD62F602E0619D92F46
:101FB000DA2F602E8619DD2FDE2F602E2C08013AD5
:101FC000031DE32FE42FE82F9501FF309B00602EC7
:101FD0002C08033A031DED2FEE2F602EFF309500E5
:101FE0009B01602E602E602E602E602E602E602E73
:101FF000602E602E602E602E602E602E602E0800F7
:102868008B130B130800831603138C128B110C1097
:10287800080083120313071087150716871208002C
:10288800831203130714871107128716080083128F
:1028980003130714871107168712080083120313FE
:1028A80007108715071287160800831203130710ED
:1028B8008711071287120800831203138F018E01F4
:1028C80021309000080002300A168A11F5240A16F1
:1028D8008A1108008030831203139F008430831606
:1028E80003139F0008003434813412348134563481
:1028F8008134A1348134AA34813483120313A000B3
:10290800852C0C1E882C892C852C8A2C2008990053
:10291800080083120313A10021080A168A118124D2
:102928000A168A110A168A11B0240A168A119C2CD2
:1029380008007E088A007F0882000A168A119D24F2
:102948000A168A118000840A04087D0603190034D7
:10295800FF0A0319FE0AA12C83120313981CB52C35
:10296800B62CBE2C181218161A08BA2C1A08BE2C27
:10297800BE2CBE2C8C1EC12CC22CBE2CC32C1A08FB
:10298800C52C080001300A168A11F5240A168A1186
:10299800003083120313A3000030A2000030A1000E
:1029A8000130A0000A168A11CD260A168A110800DD
:1029B80083120313A8008617280888000030A30094
:1029C8000030A2000030A1000130A0000A168A11D0
:1029D800CD260A168A110A168A1148250A168A115E
:1029E800080083120313A800861328088800003003
:1029F800A3000030A2000030A1000130A0000A1698
:102A08008A11CD260A168A110A168A1148250A162D
:102A18008A110800831203132408A201A2072308BD
:102A2800A101A1070A168A1169250A168A110D3013
:102A38000A168A1181240A168A110A300A168A117E
:102A480081240A168A110800F701F801F901DF014B
:102A5800E001E101E201E301E401E501E601E7014A
:102A6800E801E9018313AA30FD001430FE00773035
:102A7800FF00A03084000A168A11A1240A168A11C0
:102A880083010A128A15542B831203130617003088
:102A9800A3000030A2000030A1000130A0000A16F7
:102AA8008A11CD260A168A118312031306130030E1
:102AB800A3000030A2000030A1000130A0000A16D7
:102AC8008A11CD260A168A110800812D8312031354
:102AD8002208FF00210884000A128A1100210A1620
:102AE8008A110A168A1181240A168A110130831262
:102AF8000313A1070318A20A812D831203132208C6
:102B0800FF00210884000A128A1100210A168A117E
:102B18000038031D902D912D6A2D922D08008312E7
:102B28000313A401A501982D201C9B2D9C2DA22DDB
:102B38002208A4070318A50A2308A50701300310D3
:102B4800A20DA30DFF3E031DA32D01300310A10C00
:102B5800A00CFF3E031DAA2D21082004031DB52D3E
:102B6800B62D982DB72D2508A101A1072408A0018D
:102B7800A007BE2D080083120313A800E22D091533
:102B88000030A3000030A2000030A1002D30A000CA
:102B98000A168A11CD260A168A11831203130911FF
:102BA8000030A3000030A2000030A1001E30A000B9
:102BB8000A168A11CD260A168A11E22D01308312CF
:102BC8000313A8022808FF3A031DEB2DEC2DC32D93
:102BD800ED2D0800062E831203132A08FF0029088A
:102BE80084000A128A1100210A168A110A168A110B
:102BF800DC240A168A11013083120313A90703186B
:102C0800AA0A062E831203132A08290403190D2E73
:102C18000E2E1E2E2A08FF00290884000A128A1187
:102C280000210A168A110038031D1B2E1C2EEF2DB9
:102C38001E2E1E2E08008312031306170030A30051
:102C48000030A2000030A1000F30A0000A168A113F
:102C5800CD260A168A1138300A168A11F5240A1662
:102C68008A1106300A168A11F5240A168A110C30C0
:102C78000A168A11F5240A168A1101300A168A11D1
:102C8800F5240A168A11003083120313A3000030BA
:102C9800A2000030A1000130A0000A168A11CD263A
:102CA8000A168A1108008312031385018601870119
:102CB8008801890133308316031385001F3086008D
:102CC800803087008801033089000A168A116E2433
:102CD8000A168A110A168A1137240A168A11FF3031
:102CE80083160313920004308312031392000C30EE
:102CF80097000C309D0095019B010A168A11342417
:102D08000A168A110A168A111F260A168A110A1625
:102D18008A1159240A168A11080083120313AA007B
:102D2800AB01AA08031D992E9A2EA02E0A168A1105
:102D380067240A168A11AF2E831203132A08013A50
:102D4800031DA72EA82EAF2E0A128A11F9270A16DC
:102D58008A11AF2EAF2E103083120313A900290851
:102D6800AB00AB08031DB92EBA2EBC2ECC2ECC2E30
:102D780020300A168A11DC240A168A1101308312BF
:102D88000313AB02AB08031DCA2ECB2EBC2ECC2ED0
:102D98000800D82E073083120313A5007D30A40045
:102DA800A40BD42EA50BD42E013083120313A40038
:102DB8000030A5000030A6000030A7002408A002BB
:102DC8002508031C250FE92EEA2EA1022608031C5C
:102DD800260FEF2EF02EA2022708031C270FF52E30
:102DE800F62EA302FF302306031D042FFF30220610
:102DF800031D042FFF302106031D042FFF3020067A
:102E0800031D072F082FCE2E092F08008312031346
:102E1800210820040319112F122F472FA501A50AF5
:102E2800212F01300310A00DA10DFF3E031D162F09
:102E38000130A4002408A507212FA11F242F252F26
:102E4800152F272F272F21082302031D2D2F200898
:102E58002202031C302F312F382F2008A20221080C
:102E6800031CA303A302382F01300310A10CA00CEC
:102E7800FF3E031D392F0130A502031D442F452FA6
:102E8800272F472F472F2308A101A1072208A001B8
:102E9800A0074E2F0800003083120313AC00003047
:102EA800AB000030AA000030A9005A2F201C5D2F6B
:102EB8005E2F762F2408A907250803110318013E61
:102EC8000319672FAA07260803110318013E0319DF
:102ED8006E2FAB07270803110318013E0319752F3E
:102EE800AC07762F0130A8000310A40DA50DA60D80
:102EF800A70DA80B782F01300310A30CA20CA10C6E
:102F0800A00CFF3E031D802F230822042104200467
:102F1800031D8F2F902F5A2F912F2C08A3002B08B9
:102F2800A2002A08A1002908A0009A2F0800F6018B
:102F38000B1C9F2FA02FBE2F061EA32FA42FA82F38
:102F48008F018E011014BC2F10100F08F000F10132
:102F58007008F7007108F8007708F100F0010E0812
:102F68007007F7000030031801307107F800BC2F14
:102F78000B10BE2F8C1EC12FC22FF52F981CC52FEA
:102F8800C62FCB2F181218161A08F52FF52F1A0866
:102F9800F0007008F6007608523A031DD42FD52F9A
:102FA800DF2F7608F0000030F9005F3E84007008DB
:102FB80083138000F52F5F08523A031DE42FE52F95
:102FC800F52F7608F0000130F1007108F90779084B
:102FD8005F3E8400700883138000F52FF52FF52FCE
:102FE800F52F7508FF0074088A0073088400720EB4
:082FF8008300FE0E7E0E0900AD
:02400E0032FF7F
:00000001FF
